:100000000C9434000C9451000C9451000C94530047
:100010000C9451000C9451000C9451000C9451001C
:100020000C9451000C9451000C9451000C9451000C
:100030000C9451000C9451000C9451000C945100FC
:100040000C9451000C9451000C9451000C945100EC
:100050000C9451000C9451000C9451000C945100DC
:100060000C9451000C94510011241FBECFEFD4E02A
:10007000DEBFCDBF11E0A0E0B1E0E2EAF7E002C0F0
:1000800005900D92A230B107D9F721E0A2E0B1E0CE
:1000900001C01D92A53DB207E1F70E9492020C94A7
:1000A000CF030C9400001F920F920FB60F921124F1
:1000B0002F933F934F935F938F939F93EF93FF9370
:1000C000F8941D9B55C01A9B50C0109203011092CA
:1000D00002011C9B19C02091060130910701C90142
:1000E00001969093070180930601E0910E01F09133
:1000F0000F01ED5AFE4F81E090E001C0880F2A9574
:10010000EAF79081892B1BC02091060130910701ED
:10011000C90101969093070180930601E0910E01B9
:10012000F0910F01ED5AFE4F81E090E002C0880F80
:10013000991F2A95E2F78095909590818923808375
:10014000809106019091070108970CF459C0109214
:1001500007011092060180910E0190910F01019606
:1001600090930F0180930E014BC081E090E03FC05F
:100170001A9B35C01092030110920201E0910A010E
:10018000F0910B01EC56FE4F808190E0209104012C
:1001900030910501A9014F5F5F4F509305014093D6
:1001A000040102C0959587952A95E2F780FF02C069
:1001B0002B9A01C02B98809104019091050108971A
:1001C000FCF0109205011092040180910A019091B7
:1001D0000B01019690930B0180930A0111C080914D
:1001E000020190910301019739F482E090E090932D
:1001F00003018093020104C01092030110920201D6
:1002000080910E0190910F018034910574F010924D
:100210000F0110920E0110920B0110920A0181E061
:1002200090E090930901809308017894FF91EF91F9
:100230009F918F915F914F913F912F910F900FBEA2
:100240000F901F90189520E030E0FC01E20FF31FA3
:1002500060832F5F3F4F20313105B9F70895009734
:1002600039F0000000000000000000000197F7CF07
:100270000895CF93DF9300D01F92CDB7DEB79A8356
:1002800089836B8380E090E041E050E040982981D1
:100290003A81BA01082E02C0660F771F0A94E2F76E
:1002A00026233723232B11F0419A01C04198409A0D
:1002B00001968031910551F7449A429881E090E08F
:1002C0000E942F01429A8BB1807F8BB93B812BB169
:1002D00081E090E001C0880F3A95EAF7822B8BB954
:1002E00044980F900F900F90DF91CF910895CF9386
:1002F000DF93DC018C91EB012881D8E02D9F9001E8
:100300001124282BEA01E881D0E4ED9FF0011124AB
:100310002E2B3F2B922F832F989F90011124211574
:10032000310521F4980F9F5F8D5FF6CF822F877084
:100330008C93C901E3E096958795EA95E1F787707C
:10034000FB018083F6E036952795FA95E1F7277053
:10035000EA012883DF91CF910895CF93DF938091B5
:1003600012018F5F837080931201809112018111BD
:100370000BC080911001909111010196877099270F
:10038000909311018093100160911201660F660F26
:10039000C0E0D0E080E090E041E050E02C2F260F5C
:1003A000309112013C1749F0FA010C2E02C0EE0FF9
:1003B000FF1F0A94E2F78E2B9F2B30E0A0911001D3
:1003C000B0911101F901ED5BFE4FE081F0E0AE1755
:1003D000BF0754F4FE013496DA0102C0AA0FBB1F16
:1003E000EA95E2F78A2B9B2BA0911001B0911101A5
:1003F000F901ED5EFE4FE081F0E0AE17BF0754F467
:10040000FE013896DA0102C0AA0FBB1FEA95E2F797
:100410008A2B9B2BE0911001F0911101D901AD5D68
:10042000BE4F2C9130E0E217F3075CF49E01245F8D
:100430003F4FFA0102C0EE0FFF1F2A95E2F78E2B05
:100440009F2B2196C430D10509F0A8CF60911201ED
:100450000E94390149B120E030E050E0EFEFC901DE
:100460008D5C9E4FBA010C2E02C0759567950A945B
:10047000E2F760FF07C060911201DC01A60FB11D19
:10048000EC9306C060911201DC01A60FB11D1C9215
:1004900021962C5F3F4F2031310509F7DF91CF9135
:1004A0000895F999FECF92BD81BD60BDFA9AF99A7F
:1004B0000895F999FECF92BD81BDF89A80B508954F
:1004C000CF93239A84B18B7C84B985B1846385B939
:1004D0001CBC8FEF87B98FE08AB980EF8BB9439846
:1004E00081E090E00E942F01439AC1E0C093680030
:1004F00080E280936B0080E090E00E9459029FEFC1
:10050000980F903118F48093000107C0C093000148
:1005100061E080E090E00E94510278941092120114
:10052000CF9108950E9460026FEF83E291E00E94F4
:10053000230160E083E491E00E94230160E083E115
:1005400091E00E942301C8EBDBE00E94AD012197FE
:10055000E1F760E083E291E00E9423016FEF83E422
:1005600091E00E94230160E083E191E00E94230179
:10057000C8EBDBE00E94AD012197E1F760E083E288
:1005800091E00E94230160E083E491E00E94230156
:100590006FEF83E191E00E942301C8EBDBE00E9452
:1005A000AD012197E1F760E083E291E00E94230131
:1005B00060E083E491E00E94230160E083E191E048
:1005C0000E9423018091000190E00197FC01ED5D04
:1005D000FE4F2FEF2083FC01ED5BFE4F2083FC01DB
:1005E000ED5EFE4F2083C1E0D0E080910801909144
:1005F0000901892B69F5809102019091030102970D
:1006000039F10E94AD0180910C0190910D01892B6F
:10061000A1F01A99EACFF8941092070110920601FE
:10062000109205011092040110920F0110920E0118
:1006300010920B0110920A0157C0E3E3F1E0A4EC21
:10064000B1E081918D9381E0E334F807D1F7E1CFF8
:10065000F8948091080190910901892B09F046C016
:100660008091020190910301029791F580E090E062
:100670001D9BFECF609193011C9B7BC0AE01082E99
:1006800001C0440F0A94EAF7462B409393011D9949
:10069000FECF01968830910559F780E090E01D9BD0
:1006A000FECF6091D4011C9B6FC0AE01082E01C02B
:1006B000440F0A94EAF7462B4093D4011D99FECFCC
:1006C00001968830910559F71092030110920201AA
:1006D00080919301813041F46091D40160930001D5
:1006E00080E090E00E94510278947FCF109209013F
:1006F0001092080180910C0190910D010196909348
:100700000D0180930C0120910C0130910D0180911D
:10071000000190E0E3E5F1E0281739070CF1A3E2CE
:10072000B1E081918D9381E0E336F807D1F7A3E63C
:10073000B1E0E3E4F1E08D91819381E0E335F807E6
:10074000D1F7A3E7B1E0E3E1F1E08D91819381E09E
:10075000E332F807D1F710920D0110920C0180CF0F
:10076000A4E9B1E081918D9381E0E339F807D1F7F5
:1007700077CF9E01082E01C0220F0A94EAF7209538
:1007800026232093930183CF9E01082E01C0220FC0
:100790000A94EAF7209526232093D4018FCFF8946A
:0207A000FFCF89
:0207A200010054
:00000001FF
